:100000000C942D000C94E20A0C94B6080C94E20AAD
:100010000C94E20A0C94E20A0C94E20A0C94E20AB0
:100020000C94E20A0C94E20A0C94E20A0C94E20AA0
:100030000C94E20A0C94E20A0C94E20A0C94E20A90
:100040000C94E20A0C94E20A0C94E20A0C94E20A80
:100050000C94E20A00600076800011241FBECFE5F8
:10006000D4E0DEBFCDBFE4E5F0E040E017C0B591DD
:10007000A59135912591059107FD0CC0959185912C
:10008000EF01F92FE82F05900D92A217B307D9F7CA
:10009000FE0104C01D92A217B307E1F7E935F4078A
:0E00A00031F70E941F080C94C10AF894FFCF9C
:1000AE002054494D453A20005254433A2030303ABC
:1000BE0030303A3030005345542054494D452031AC
:1000CE003A005345542054494D4520323A00534589
:1000DE00542054494D4520333A002020434F4E546E
:0B00EE00524F4C204D4F444520200095
:1000FA00EF92FF920F931F93CF93DF9300D00F924B
:10010A00CDB7DEB780E008C0E1E0F0E0EC0FFD1FFC
:10011A00E80FF11D10828F5F8330B0F381E00E94F7
:10012A00920A83EF91E00197F1F700C000008FE097
:10013A000E94920A80E80E94920A66EB70E080E0D0
:10014A000E94620A85E80E94920AFB801DECF19ED9
:10015A00012D112406950695069580E3800F0E94CD
:10016A00A40A000F802F880F880F080F8F2D801B7D
:10017A00805D0E94A40A8AE30E94A40AFA80F19E82
:10018A00012D112406950695069580E3800F0E949D
:10019A00A40A000F802F880F880F080F8F2D801B4D
:1001AA00805D0E94A40A8AE30E94A40A0981019F31
:1001BA00112D112416951695169580E3810F0E942C
:1001CA00A40A110F812F880F880F180F802F811B07
:1001DA00805D0E94A40A85E80E94920A11E00E94AA
:1001EA00410A80916C008F3071F50E94D90A80ED26
:1001FA000E94CC0A80E00E94CC0A89810E947F0A70
:10020A000E94CC0A8A810E947F0A0E94CC0A8B81B2
:10021A000E947F0A0E94CC0A83E00E947F0A0E9401
:10022A00CC0A8AE10E947F0A0E94CC0A8BE00E94D3
:10023A007F0A0E94CC0A88E10E947F0A0E94CC0AA7
:10024A000E94DF0A35C180916C008A3061F4113056
:10025A0049F0123029F485E80E94920A10E003C09E
:10026A00125001C015E080916C0080916C008A30B8
:10027A0008F0E9C03B812A8199811330C9F128F439
:10028A00113061F0123019F186C0153009F45AC0E4
:10029A0008F447C0163009F46EC07DC040916C0066
:1002AA008DEC389F812D1124869586958695880F29
:1002BA00582F550F550F850F532F581B842F880F12
:1002CA00482F440F440F840F850F8B8364C04091DD
:1002DA006C008DEC389F812D112486958695869524
:1002EA00880F582F550F550F850F840F8B8353C0D6
:1002FA0040916C008DEC289F812D1124869586955E
:10030A008695880F582F550F550F850F522F581B5A
:10031A00842F880F482F440F440F840F850F8A8338
:10032A003AC040916C008DEC289F812D112486954E
:10033A0086958695880F582F550F550F850F840F70
:10034A008A8329C040916C008DEC989F812D1124DD
:10035A00869586958695880F582F550F550F850FC8
:10036A00592F581B842F880F482F440F440F840F8E
:10037A00850F898310C040916C008DEC989F812D68
:10038A001124869586958695880F582F550F550FF7
:10039A00850F840F89838B81883110F03B8311503C
:1003AA008A818C3310F02A83115089818C3310F0A2
:1003BA009983115085E80E94920AEB800DECE09E29
:1003CA00F12C1124F694F694F69480E38F0D0E9492
:1003DA00A40AFF0C8F2D880F880FF80E8E2D8F1907
:1003EA00805D0E94A40A8AE30E94A40AEA80E09E31
:1003FA00F12C1124F694F694F69480E38F0D0E9462
:10040A00A40AFF0C8F2D880F880FF80E8E2D8F19D6
:10041A00805D0E94A40A8AE30E94A40AF980F09EE1
:10042A00012D112406950695069580E3800F0E94FA
:10043A00A40A000F802F880F880F080F8F2D801BAA
:10044A00805D0E94A40A1330A1F028F4113049F00B
:10045A00123059F01DC01530A1F078F01630A9F00D
:10046A0017C086E80E94920A13C088E80E94920A7E
:10047A000FC089E80E94920A0BC08BE80E94920A78
:10048A0007C08CE80E94920A03C085E80E94920A7B
:10049A008BEA189F812D112486958695982F990F9E
:1004AA00890F982F990F812F891B11E0180F97CE6A
:1004BA000F900F900F90DF91CF911F910F91FF90A6
:0404CA00EF90089512
:1004CE00CF93DF9381E00E94920A83EF91E0019730
:1004DE00F1F700C000008FE00E94920A80E80E94AF
:1004EE00920A64EC70E080E00E94620A80EC0E9446
:1004FE00920A80917500CDEC8C9F812D11248695EA
:10050E0086958695805D0E94A40A809175008C9FC9
:10051E00912D1124969596959695990F292F220F28
:10052E00220F920F891B805D0E94A40A8AE30E940B
:10053E00A40A809174008C9F812D11248695869536
:10054E008695805D0E94A40A809174008C9F912DE7
:10055E001124969596959695990F292F220F220F75
:10056E00920F891B805D0E94A40A8AE30E94A40A4E
:10057E00809173008C9F812D11248695869586958A
:10058E00805D0E94A40A809173008C9FC12D11245E
:10059E00C695C695C695CC0F9C2F990F990FC90F6E
:1005AE008C1B805D0E94A40A80EC0E94920AC1E01E
:1005BE000E94410A80916C008C3009F466C18091D2
:1005CE006C008A3061F4C13049F0C23029F480ECFD
:1005DE000E94920AC0E003C0C25001C0C5E08091E3
:1005EE006C0080916C008A3008F01AC13091750051
:1005FE002091740090917300C33009F43FC028F429
:10060E00C13061F0C23031F198C0C53009F466C016
:10061E0008F450C0C63009F47DC08FC040917500FB
:10062E0060916C008DEC489F812D112486958695E6
:10063E008695880F582F550F550F850F542F581B21
:10064E00862F880F482F440F440F840F850F8093F9
:10065E00750073C04091750050916C008DEC489FF1
:10066E00812D1124869586958695880F482F440FE7
:10067E00440F840F850F809375005FC04091740006
:10068E0060916C008DEC489F812D11248695869586
:10069E008695880F582F550F550F850F542F581BC1
:1006AE00862F880F482F440F440F840F850F809399
:1006BE00740043C04091740050916C008DEC489FC3
:1006CE00812D1124869586958695880F482F440F87
:1006DE00440F840F850F809374002FC040917300D8
:1006EE0060916C008DEC489F812D11248695869526
:1006FE008695880F582F550F550F850F542F581B61
:10070E00862F880F482F440F440F840F850F809338
:10071E00730013C04091730050916C008DEC489F94
:10072E00812D1124869586958695880F482F440F26
:10073E00440F840F850F809373008091750088316C
:10074E0018F030937500C150809174008C3318F0FE
:10075E0020937400C150809173008C3318F09093E5
:10076E007300C15080EC0E94920A80917500DDECFE
:10077E008D9F812D1124869586958695805D0E948C
:10078E00A40A809175008D9F912D112496959695B2
:10079E009695990F292F220F220F920F891B805D9C
:1007AE000E94A40A8AE30E94A40A809174008D9F7D
:1007BE00812D1124869586958695805D0E94A40ACA
:1007CE00809174008D9F912D1124969596959695F6
:1007DE00990F292F220F220F920F891B805D0E94E5
:1007EE00A40A8AE30E94A40A809173008D9F812D32
:1007FE001124869586958695805D0E94A40A809127
:10080E0073008D9FD12D1124D695D695D695DD0FDB
:10081E009D2F990F990FD90F8D1B805D0E94A40AF1
:10082E00C330A1F028F4C13049F0C23059F01DC0D8
:10083E00C530A1F078F0C630A9F017C081EC0E9447
:10084E00920A13C083EC0E94920A0FC084EC0E949D
:10085E00920A0BC086EC0E94920A07C087EC0E9497
:10086E00920A03C080EC0E94920A8BEAC89F812DE7
:10087E00112486958695982F990F890F982F990F89
:10088E008C2F891BC1E0C80F93CEDF91CF910895B5
:10089E00CF93DF9381E00E94920A83EF91E001975C
:1008AE00F1F700C000008FE00E94920A80E80E94DB
:1008BE00920A60ED70E080E00E94620A80EC0E9475
:1008CE00920A80917200CDEC8C9F812D1124869519
:1008DE0086958695805D0E94A40A809172008C9FF9
:1008EE00912D1124969596959695990F292F220F55
:1008FE00220F920F891B805D0E94A40A8AE30E9438
:10090E00A40A809171008C9F812D11248695869565
:10091E008695805D0E94A40A809171008C9F912D16
:10092E001124969596959695990F292F220F220FA1
:10093E00920F891B805D0E94A40A8AE30E94A40A7A
:10094E00809170008C9F812D1124869586958695B9
:10095E00805D0E94A40A809170008C9FC12D11248D
:10096E00C695C695C695CC0F9C2F990F990FC90F9A
:10097E008C1B805D0E94A40A80EC0E94920AC1E04A
:10098E000E94410A80916C008D3009F466C18091FD
:10099E006C008A3061F4C13049F0C23029F480EC29
:1009AE000E94920AC0E003C0C25001C0C5E080910F
:1009BE006C0080916C008A3008F01AC13091720080
:1009CE002091710090917000C33009F43FC028F45B
:1009DE00C13061F0C23031F198C0C53009F466C043
:1009EE0008F450C0C63009F47DC08FC0409172002B
:1009FE0060916C008DEC489F812D11248695869513
:100A0E008695880F582F550F550F850F542F581B4D
:100A1E00862F880F482F440F440F840F850F809325
:100A2E00720073C04091720050916C008DEC489F23
:100A3E00812D1124869586958695880F482F440F13
:100A4E00440F840F850F809372005FC04091710038
:100A5E0060916C008DEC489F812D112486958695B2
:100A6E008695880F582F550F550F850F542F581BED
:100A7E00862F880F482F440F440F840F850F8093C5
:100A8E00710043C04091710050916C008DEC489FF5
:100A9E00812D1124869586958695880F482F440FB3
:100AAE00440F840F850F809371002FC0409170000A
:100ABE0060916C008DEC489F812D11248695869552
:100ACE008695880F582F550F550F850F542F581B8D
:100ADE00862F880F482F440F440F840F850F809365
:100AEE00700013C04091700050916C008DEC489FC7
:100AFE00812D1124869586958695880F482F440F53
:100B0E00440F840F850F809370008091720088319E
:100B1E0018F030937200C150809171008C3318F030
:100B2E0020937100C150809170008C3318F0909317
:100B3E007000C15080EC0E94920A80917200DDEC30
:100B4E008D9F812D1124869586958695805D0E94B8
:100B5E00A40A809172008D9F912D112496959695E1
:100B6E009695990F292F220F220F920F891B805DC8
:100B7E000E94A40A8AE30E94A40A809171008D9FAC
:100B8E00812D1124869586958695805D0E94A40AF6
:100B9E00809171008D9F912D112496959695969525
:100BAE00990F292F220F220F920F891B805D0E9411
:100BBE00A40A8AE30E94A40A809170008D9F812D61
:100BCE001124869586958695805D0E94A40A809153
:100BDE0070008D9FD12D1124D695D695D695DD0F0B
:100BEE009D2F990F990FD90F8D1B805D0E94A40A1E
:100BFE00C330A1F028F4C13049F0C23059F01DC005
:100C0E00C530A1F078F0C630A9F017C081EC0E9473
:100C1E00920A13C083EC0E94920A0FC084EC0E94C9
:100C2E00920A0BC086EC0E94920A07C087EC0E94C3
:100C3E00920A03C080EC0E94920A8BEAC89F812D13
:100C4E00112486958695982F990F890F982F990FB5
:100C5E008C2F891BC1E0C80F93CEDF91CF910895E1
:100C6E00CF93DF9381E00E94920A83EF91E0019788
:100C7E00F1F700C000008FE00E94920A80E80E9407
:100C8E00920A6CED70E080E00E94620A80EC0E9495
:100C9E00920A80916F00CDEC8C9F812D1124869548
:100CAE0086958695805D0E94A40A80916F008C9F28
:100CBE00912D1124969596959695990F292F220F81
:100CCE00220F920F891B805D0E94A40A8AE30E9464
:100CDE00A40A80916E008C9F812D11248695869595
:100CEE008695805D0E94A40A80916E008C9F912D46
:100CFE001124969596959695990F292F220F220FCE
:100D0E00920F891B805D0E94A40A8AE30E94A40AA6
:100D1E0080916D008C9F812D1124869586958695E8
:100D2E00805D0E94A40A80916D008C9FC12D1124BC
:100D3E00C695C695C695CC0F9C2F990F990FC90FC6
:100D4E008C1B805D0E94A40A80EC0E94920AC1E076
:100D5E000E94410A80916C008E3009F466C1809128
:100D6E006C008A3061F4C13049F0C23029F480EC55
:100D7E000E94920AC0E003C0C25001C0C5E080913B
:100D8E006C0080916C008A3008F01AC130916F00AF
:100D9E0020916E0090916D00C33009F43FC028F48D
:100DAE00C13061F0C23031F198C0C53009F466C06F
:100DBE0008F450C0C63009F47DC08FC040916F005A
:100DCE0060916C008DEC489F812D1124869586953F
:100DDE008695880F582F550F550F850F542F581B7A
:100DEE00862F880F482F440F440F840F850F809352
:100DFE006F0073C040916F0050916C008DEC489F56
:100E0E00812D1124869586958695880F482F440F3F
:100E1E00440F840F850F80936F005FC040916E006A
:100E2E0060916C008DEC489F812D112486958695DE
:100E3E008695880F582F550F550F850F542F581B19
:100E4E00862F880F482F440F440F840F850F8093F1
:100E5E006E0043C040916E0050916C008DEC489F27
:100E6E00812D1124869586958695880F482F440FDF
:100E7E00440F840F850F80936E002FC040916D003C
:100E8E0060916C008DEC489F812D1124869586957E
:100E9E008695880F582F550F550F850F542F581BB9
:100EAE00862F880F482F440F440F840F850F809391
:100EBE006D0013C040916D0050916C008DEC489FF9
:100ECE00812D1124869586958695880F482F440F7F
:100EDE00440F840F850F80936D0080916F008831D1
:100EEE0018F030936F00C150809174008C3318F05D
:100EFE0020936E00C15080916D008C3318F090934A
:100F0E006D00C15080EC0E94920A80916F00DDEC62
:100F1E008D9F812D1124869586958695805D0E94E4
:100F2E00A40A80916F008D9F912D11249695969510
:100F3E009695990F292F220F220F920F891B805DF4
:100F4E000E94A40A8AE30E94A40A80916E008D9FDB
:100F5E00812D1124869586958695805D0E94A40A22
:100F6E0080916E008D9F912D112496959695969554
:100F7E00990F292F220F220F920F891B805D0E943D
:100F8E00A40A8AE30E94A40A80916D008D9F812D90
:100F9E001124869586958695805D0E94A40A80917F
:100FAE006D008D9FD12D1124D695D695D695DD0F3A
:100FBE009D2F990F990FD90F8D1B805D0E94A40A4A
:100FCE00C330A1F028F4C13049F0C23059F01DC031
:100FDE00C530A1F078F0C630A9F017C081EC0E94A0
:100FEE00920A13C083EC0E94920A0FC084EC0E94F6
:100FFE00920A0BC086EC0E94920A07C087EC0E94F0
:10100E00920A03C080EC0E94920A8BEAC89F812D3F
:10101E00112486958695982F990F890F982F990FE1
:10102E008C2F891BC1E0C80F93CEDF91CF9108950D
:10103E0087B3886F87BB80EF81BB8FEF82BB85B78D
:10104E0015BE84B7806484BF8BB7806A8BBF7894DB
:10105E000E941C0A0E94D30A8CE00E94920A83E628
:10106E0090E00E94F40983E690E00E94220983EF4B
:10107E0091E00197F1F700C000000E9488098CE012
:10108E000E94920A83E690E00E94F40983E690E0C3
:10109E000E942209C3E6D0E088810E94B60A082F7A
:1010AE0089810E94B60A182F8A810E94B60A9091F1
:1010BE00750089130BC09091740019130AC090919A
:1010CE007300091749F040E050E008C040E050E0DE
:1010DE0005C040E050E002C041E050E09091720047
:1010EE0089130BC09091710019130AC09091700072
:1010FE00091749F020E030E008C020E030E005C0DC
:10110E0020E030E002C021E030E0242B352B90911E
:10111E006F0089130BC080916E0018130AC0809166
:10112E006D00081749F080E090E008C080E090E084
:10113E0005C080E090E002C081E090E0822B932B0E
:10114E00892B19F00E94C00903C085B38B7F85BB24
:0E115E0087EA91E60197F1F700C0000090CFFC
:10116C001F920F920FB60F9211242F933F934F9310
:10117C005F936F937F938F939F93AF93BF93EF93F3
:10118C00FF9381E00E94920A83EF91E00197F1F7BF
:10119C0000C000008FE00E94920A80E80E94920A30
:1011AC0068EE70E080E00E94620A9FE926E881E028
:1011BC00915020408040E1F700C000000E94410A9D
:1011CC0080916C008A3029F40E947D0010926C0092
:1011DC00D8CF80916C008B3019F40E94C009D1CF0C
:1011EC0080916C008C3019F40E946702CACF8091F8
:1011FC006C008D3019F40E944F04C3CF80916C00A9
:10120C008E3019F40E943706BCCF80916C008F3061
:10121C0061F610926C00FF91EF91BF91AF919F918D
:10122C008F917F916F915F914F913F912F910F9083
:08123C000FBE0F901F901895E2
:10124400FF920F931F93CF93DF93EC0188810E9449
:10125400B60A182F89810E94B60A082F8A810E9433
:10126400B60AF82E81E00E94920A80E80E94920A4F
:101274006EEA70E080E00E94620ACDECFC9ED12D03
:101284001124D695D695D69580E38D0F0E94A40A95
:10129400DD0F8D2F880F880FD80F8F2D8D1B805D4C
:1012A4000E94A40A8AE30E94A40A0C9FD12D11244F
:1012B400D695D695D69580E38D0F0E94A40ADD0FAE
:1012C4008D2F880F880FD80F802F8D1B805D0E9473
:1012D400A40A8AE30E94A40A1C9FC12D1124C69566
:1012E400C695C69580E38C0F0E94A40ACC0F8C2F60
:1012F400880F880FC80F812F8C1B805D0E94A40A61
:0C130400DF91CF911F910F91FF90089591
:101310001092610020E09FEE2CC082B38F70892B69
:1013200082BB80B38F708F30E9F08E3019F4209338
:101330006C0014C08D3029F484E0820F80936C001F
:101340000DC08B3029F488E0820F80936C0006C0BA
:10135000873021F48CE0820F80936C0081E08093D1
:10136000610007C0892F90E0880F991F982F916026
:101370002F5F80916100811102C0243070F20895C6
:1013800088B3806188BB88B3886088BB86E791E0BA
:101390000197F1F700C0000088B38F7E88BB80E121
:1013A00092E10197F1F700C000009FE32DE083E098
:1013B000915020408040E1F700C0000088B3806178
:1013C00088BB89EF90E00197F1F700C0000088B377
:1013D0008F7E88BB8DE892E10197F1F700C0000095
:0813E00088B3877F88BB0895E4
:1013E800CF93DF93EC010E94D90A80ED0E94CC0ACA
:1013F80080E00E94CC0A0E94D90A81ED0E94CC0AA2
:1014080080E00FC0833010F494EC01C094E896BFDC
:1014180006B607FEFDCFFE01E80FF11D93B19083DC
:101428008F5F843078F30E94DF0ADF91CF910895AF
:101438008FEF8ABB87B3806E87BB1BBA88B38F7167
:1014480088BB83ED90E30197F1F700C0000088E3C3
:101458000E94920A8CE00E94920A81E00E94920AFD
:1014680083EF91E00197F1F700C0000086E00E9449
:0A147800920A80E80E94920A08958B
:10148200CF93DF93C2E308C00E9488098091610074
:10149200811101C0C2E3C150C111F6CFD0916C00DD
:1014A200C2E308C00E94880980916100813009F47A
:1014B200C2E3C150C111F6CFD0936C00DF91CF913E
:0214C20008958B
:1014C400CF92DF92EF92CF936B01E82EC0E003C07E
:1014D4000E94A40ACF5FAE2DC6018C0F911DA11DE1
:1014E400FC018491A7FD8081882311F0C03180F331
:0A14F400CF91EF90DF90CF900895A4
:1014FE009DEC899F912D112496959695969520E1B8
:10150E00929FA0011124990F292F220F220F920FC3
:06151E00891B842B0895D7
:1015240098B39F7D98BB98B39F7B98BB8BBB88B3C4
:10153400806888BB88B38F7788BB81E28A95F1F78E
:041544000000089506
:1015480098B3906298BB98B39F7B98BB8BBB88B3CA
:10155800806888BB88B38F7788BB81E28A95F1F76A
:0415680000000895E2
:10156C00982F92959F70990F292F220F220F920F6F
:06157C008F70890F089535
:10158200EC010E94E70A0E94E60ACE010E94E80AE4
:06159200CE010E94E40AF4
:0E15980083B984E886BF06B607FEFDCF08952E
:0C15A60011B88DE280B984E086BF089582
:0C15B20084EA86BF06B607FEFDCF089550
:0615BE0084E986BF0895D8
:0415C4000C94000083
:0415C8000E94550028
:0215CC00089580
:0215CE0008957E
:0215D00008957C
:00000001FF
