:100000000C942A000C9462000C9462000C94620020
:100010000C9462000C9462000C9462000C946200D8
:100020000C9462000C9462000C9462000C946200C8
:100030000C9462000C9462000C9462000C946200B8
:100040000C9462000C9462000C9462000C946200A8
:100050000C94620011241FBECFE5D4E0DEBFCDBFFB
:0C0060000E9436000C945700F894FFCF6B
:10006C008FEF8ABB87BB84BB81BB1BBA18BA15BA8E
:10007C0012BA2FE38DE093E0215080409040E1F7DD
:10008C0000C000008FEF8BBB88BB85BB82BB2FE30E
:10009C008DE093E0215080409040E1F700C00000DB
:0200AC00E4CF9F
:1000AE00EC010E9467000E946600CE010E9468006B
:0600BE00CE010E94640067
:0400C4000C94000098
:0400C8000E9434005E
:0200CC00089595
:0200CE00089593
:0200D000089591
:00000001FF
